:020000040800F2
:10000000B0040020A9010008A51500080914000883
:10001000A1150008E90400086918000800000000A4
:10002000000000000000000000000000AD15000806
:10003000ED04000800000000A9150008B115000833
:10004000C3010008C3010008C3010008C301000880
:10005000C3010008C3010008C3010008C301000870
:10006000C3010008C3010008C3010008C301000860
:10007000C3010008C3010008C3010008C301000850
:10008000C3010008C3010008C3010008000000000C
:10009000000000000000000000000000C301000894
:1000A000C3010008C3010008C3010008C301000820
:1000B000C3010008C30100086D160008C301000851
:1000C000C3010008C3010008C3010008C301000800
:1000D000C3010008C3010008C301000800000000BC
:1000E000C3010008C3010008C301000800000000AC
:1000F000000000000000000000000000C301000834
:1001000000000000C3010008C3010008C30100088B
:1001100000000000000000000000000000000000DF
:10012000C3010008C3010008C3010008C30100089F
:10013000C3010008000000000000000000000000F3
:10014000000000000000000000000000C3010008E3
:10015000C3010008C3010008C3010008C30100086F
:10016000C3010008C30100080000000000000000F7
:10017000000000000000000000000000000000007F
:1001800000000000C30100080000000000000000A3
:10019000C3010008DFF80CD000F094F900480047D4
:1001A00071180008B0040020064880470648004740
:1001B000FEE7FEE7FEE7FEE7FEE7FEE7FEE7FEE717
:1001C000FEE7FEE759160008950100082DE9F05FEB
:1001D0000546002092469B468846064681464024B6
:1001E0001BE0284641464746224600F0C7F85346E2
:1001F0005A46C01A914110D311461846224600F0C3
:10020000AEF82D1A67EB01084F4622460120002167
:1002100000F0A5F817EB00094E41201EA4F10104DF
:10022000DFDC484631462A464346BDE8F09F2DE9CB
:10023000F04D81EA030404F0004B21F00045144620
:100240004FF0000A23F0004150EA050220D054EAA2
:1002500001021DD0C5F30A570246C5F31303C1F3CB
:100260001300C1F30A5640F4801543F48013A7EB42
:100270000608101BD64608F2FD3873EB050002D3C2
:1002800008F1010801E092185B41B8F1000F03DAB0
:1002900000200146BDE8F08D00204FF48011064695
:1002A00084460EE0171B73EB050705D3121B63EBA7
:1002B000050306434CEA010C49084FEA3000921846
:1002C0005B4150EA0107EDD152EA030012D082EA05
:1002D000040083EA0501084305D0101BAB4106D298
:1002E0000122002306E000224FF0004302E06FF0FD
:1002F000010253101AEB06004CEB085110EB0A00F8
:1003000041EB0B01BDE8F04D00F07FB80EB540F2B7
:10031000334102910021CDE900110A460B4600F05D
:1003200083F803B000BD01F0004330B421F0004178
:1003300050EA010206D00A0DA2F56072C1F3130162
:10034000002A02DC30BC00207047440F44EAC1049C
:10035000C100E01830BC00EBC25000F01FB8202AEA
:1003600004DB203A00FA02F1002070479140C2F10C
:10037000200320FA03F3194390407047202A04DB3E
:10038000203A21FA02F00021704721FA02F3D0400E
:10039000C2F1200291400843194670470029A8BFC6
:1003A0007047401C490008BF20F00100704710B49E
:1003B000B0FA80FC00FA0CF050EA010404BF10BC53
:1003C000704749B1CCF1200421FA04F411FA0CF180
:1003D00018BF012121430843A3EB0C01CB1D4FEAB9
:1003E00000614FEA102042BF002010BC704700EBB4
:1003F000C35010440029A4BF10BC7047401C4900E2
:1004000008BF20F0010010BC704710B5141E73F136
:10041000000408DA401C41F1000192185B411A43C4
:1004200001D120F0010010BD2DE9F04D92469B4610
:1004300011B1B1FA81F202E0B0FA80F220329046B6
:10044000FFF78DFF04460F4640EA0A0041EA0B0120
:1004500053465A46084313D0114653EA010019D0B7
:10046000C8F140025046FFF789FF05460E46504648
:1004700059464246FFF773FF084305D0012004E0C8
:1004800020463946BDE8F08D0020054346EAE07677
:100490002C4337430A986305E40AA0EB08000022C6
:1004A000FD0A44EA47540A3002D500200146E9E734
:1004B000010510196941DDE9084500196941BDE8E8
:1004C000F04DA2E7064C074D06E0E06840F001035E
:1004D00094E8070098471034AC42F6D3FFF75EFE6D
:1004E000A8190008C8190008FEE7000070470000BE
:1004F00072B600BFFEE70000B0B5044600F0F0F8A9
:10050000054640F20000C2F200000078611C18BFEE
:10051000044400BF00F0E4F8401BA042FAD3B0BD91
:100520002DE9F04F82B000F13E4241F2000502F1A8
:10053000FF77C4F20205072243F6004E4FEAB726C2
:10054000A84208BF0422C4F2010E042E38BF4FEAAD
:10055000B7220125002600274FF00008009208E08E
:1005600008F101080437B8F1100F06F1020600F097
:10057000A7800C6805FA08F914EA090FF0D0D1F841
:1005800004B003220BF0030CACF10104B240012CC7
:100590006FEA020A10D88268CC6802EA0A02B44004
:1005A000224382604268CBF3001422EA090204FA73
:1005B00008F42243426005E0BCF1030F02D14FF082
:1005C000030C20E0C2688C6802EA0A02B4402243AD
:1005D000BCF1020FC26016D16FF0030202EA5802AA
:1005E0000244D2F820C007F01C050F230C69AB4071
:1005F0002CEA030304FA05F52B431362D1F804B087
:1006000001250BF0030C02680CFA06F302EA0A0259
:100610001A431BF4403F0260A2D0002243F6440379
:100620000192C4F202031A684FF6084C42F4804269
:100630001A601A68CFF6FF7C02F480420192019A98
:1006400028F00302724452F80C3007F00C050F2416
:10065000AC40A343009C04FA05F52B4342F80C3050
:10066000DEF808204B6842EA090543F60C4CDC0230
:1006700058BF22EA0905CEF80850C4F2010CDCF894
:1006800000209C0242EA090558BF22EA0905CCF87D
:100690000050DEF804209C0342EA090558BF22EA14
:1006A0000905CEF80450DEF80020DB0342EA090514
:1006B00058BF22EA0905CEF80050012550E700BFD7
:1006C00002B0BDE8F08F00000069084018BF0120AB
:1006D00070470000002A08BF0904816170470000CC
:1006E00040F2AC00C2F200000068704740F2000027
:1006F00040F2AC01C2F20000C2F2000100780A68C8
:10070000104408607047000080B543F60040C4F212
:100710000200016841F400710160016841F48061E8
:100720000160016841F480710160032000F08AF8E3
:10073000002000F005F800F027F8002080BD000040
:1007400070B540F20006C2F2000640F208013278AD
:10075000C2F200014FF47A730968B3FBF2F2044667
:10076000B1FBF2F1084600F045FB0F2C4FF00105FC
:1007700008D838B94FF0FF3021460022002500F09C
:1007800035F87460284670BD82B0002043F6400101
:100790000190C4F202014A6842F480424A604A6809
:1007A00002F480420192019A0090086840F0805063
:1007B0000860086800F0805000900098072002B0A0
:1007C00000F040B8002848BF7047C1B200F01F00D9
:1007D000012202FA00F04EF20012CEF2000242EACA
:1007E000D10121F0030108607047000010B54EF6FA
:1007F0000C5CCEF2000CDCF80030C3F3022E8EF05D
:100800000704042C28BF0424BEF103034FF0FF3E6D
:100810000EFA04F438BF0023A14399400EFA03F303
:100820009A43114300F00F0200F160430901043ABA
:1008300003F564436244002848BF02F10C031970B9
:1008400010BD00004EF60C51CEF200010A684FF6C2
:10085000FF031A4060F30A2242F0806040F0FD700E
:10086000086070472DE9F041002800F08B8043F6C6
:100870000808C4F202080446D8F8F8030D4600F050
:100880000700884207D288F8F853D8F8F80300F038
:100890000700A84276D12068810717D5410705D502
:1008A000D8F8001041F4E051C8F80010010705D550
:1008B000D8F8001041F46041C8F80010D8F80010D2
:1008C000A26821F0F0011143C8F80010C0073FD121
:1008D000D8F8F80300F00700A84207D988F8F853C1
:1008E000D8F8F80300F00700A8424BD12068410770
:1008F00007D5D8F80010E26821F4E0511143C8F898
:100900000010000708D5D8F80000216920F46040E5
:1009100040EAC100C8F8000000F07CF8D8F80010E8
:1009200041F68E12C1F30311C0F60002515C40F291
:10093000080220FA01F140F20400C2F2000000684F
:10094000C2F200021160FFF7FBFE0020BDE8F0815B
:100950006068811E022907D258F8081C89015CBF13
:100960000120BDE8F08111E0012807D158F8081CEA
:1009700089035CBF0120BDE8F08107E058F8081C3E
:10098000890703D40120BDE8F08100BFD8F800102A
:1009900021F003010843C8F80000FFF7A1FE064656
:1009A00041F28837D8F80000616800F00C00B0EB25
:1009B000810F8DD0FFF794FE801BB842F2D903203F
:1009C000BDE8F08140F2080043F60801C2F20000E1
:1009D000C4F202010068096841F69E12C1F3822147
:1009E000C0F60002515CC8407047000040F20800A9
:1009F00043F60801C2F20000C4F20201006809686F
:100A000041F69E12C1F34231C0F60002515CC8406B
:100A10007047000010B543F60404C4F20204606895
:100A200000F00C0142F200400829C0F2F40007D0A7
:100A3000042918BF10BD41F20020C0F27A0010BD99
:100A4000216801F03F02216823684902C3F388113D
:100A500006D4A1FB00010023FFF7B8FB07E000BFAD
:100A600041F20020C0F27A004843B0FBF2F0216866
:100A70000222C1F3014102EB4101B0FBF1F010BDD4
:100A80002DE9F04182B0002868D00446007843F692
:100A90000006C007C4F202060BD0B06800F00C00DC
:100AA000042840F09F803068800302D560680028E9
:100AB00054D0207880071AD5B06810F00C0F09D0F8
:100AC000B06800F00C00082840F0A6807068400272
:100AD00000F1A2803068800702D5E06801283DD18E
:100AE0003068216920F0F80040EAC10030602078C9
:100AF000000737D4207840074CD4A56955B3B068B7
:100B000000F00C00082840F0BB80012D26D0706852
:100B1000E16900F480028A4220D1216A00F03F029C
:100B20008A421BD147F6C071626A0140B1EB821F55
:100B300014D1A16A4FF6FF73C903994300F4403200
:100B4000A1F580318A4209D1E16A00F07060B0EB12
:100B5000016F03D1002002B0BDE8F081012002B096
:100B6000BDE8F0816069002840F20000C4F247202F
:100B700076D00121C0F8801EFFF7B2FD054600BF08
:100B8000706F8007B6D4FFF7ABFD401B0228F7D982
:100B9000DDE000BF306C10F080580AD100200190D9
:100BA000306C40F080503064306C00F08050019028
:100BB000019847F20007C4F200073868C00541D425
:100BC000386840F480703860FFF78AFD054600BF42
:100BD0003868C00536D4FFF783FD401B0228F7D9DB
:100BE000B5E000BFB06800F00C00082803D17068C1
:100BF00040023FF558AF6068B0F5803F07D0B0F5D0
:100C0000A02F40F08D80306840F480203060306844
:100C100040F4803030608DE0E068002852D0002041
:100C2000C4F2472001210160FFF75AFD054600BFCD
:100C3000306880073FF554AFFFF752FD401B022894
:100C4000F6D984E0A068012805D005284ED1306F80
:100C500040F004003067306F40F0010030674FE033
:100C60000021C0F8801EFFF73BFD0546706F80072E
:100C70007FF540AFFFF734FD401B0228F6D966E050
:100C80000027C4F2472700203866FFF729FD022D10
:100C900005460BD1306880015ED5FFF721FD401B72
:100CA00002284FF00300F5D955E700BF30688001F6
:100CB0007FF550AFFFF714FD401B02284FF00300F3
:100CC000F4D948E70020C4F2472000210160FFF773
:100CD00007FD0546306880077FF509AFFFF700FD87
:100CE000401B02284FF00300F4D934E7316F00288D
:100CF00021F001013167316F21F0040131674DD0DE
:100D0000FFF7EEFC054641F2883700BF306F8007E1
:100D100056D4FFF7E5FC401BB842F7D917E000BFF7
:100D20003168002821F480313160316821F480215C
:100D300031604FD0FFF7D4FC054600BF3068800318
:100D40003FF5B7AEFFF7CCFC401B6428F6D9032073
:100D500002B0BDE8F08100BF04F11C052FCD0843AF
:100D600040EA8210D9034FF6FF729143A1F580311A
:100D700040EA05600843706001203866FFF7B0FC68
:100D8000044600BF306880013FF5E4AEFFF7A8FCE1
:100D9000001B02284FF00300F4D9DCE6FFF7A0FCAB
:100DA000054641F2883700BF306F800708D5FFF74E
:100DB00097FC401BB8424FF00300F5D9CBE600BFCB
:100DC000B8F1000F7FF499AE306C20F080503064A1
:100DD00093E600BFFFF784FC054600BF3068800340
:100DE0007FF567AEFFF77CFC401B64284FF00300E3
:100DF000F4D9B0E6411E0020B0EB116F1CBF0120FA
:100E000070474EF21002CEF2000251604EF62351AE
:100E1000CEF20001F0230B70072190601160704743
:100E2000704700007047000010B590F83C20012A80
:100E30004FF002023ED080F83D200268D2F804E074
:100E4000D2F808C00C682EF07003234340F6FF343C
:100E5000C4F20004A242536010DCB2F1804F1ED0F5
:100E600040F20043C4F200039A4218D040F6000357
:100E7000C4F200039A4212D016E000BF40F60043CD
:100E8000C4F200039A420AD044F20003C4F2010300
:100E90009A4204D00023C4F201039A4204D1496863
:100EA0002CF08003194391600121002280F83D104D
:100EB00080F83C20104610BD002804BF0120704778
:100EC00010B5044690F83D0028B9002084F83C0095
:100ED000204600F01FF8022084F83D002068211D04
:100EE00000F0CAFB012084F8460084F83E0084F834
:100EF0003F0084F8400084F8410084F8420084F800
:100F0000430084F8440084F8450084F83D00002044
:100F100010BD000080B582B0006840F60001C4F248
:100F2000000188421CBF02B080BD0020019043F642
:100F30004000C4F202000168002241F00401016097
:100F40000068002100F00400019001981E20FFF7C6
:100F50004DFC1E2002B0BDE88040FFF733BC00000E
:100F600090F83D1001291CBF01207047022180F834
:100F70003D10006840F6FF32C168C4F200029042A2
:100F800041F00101C1600FDCB0F1804F1DD040F293
:100F90000041C4F20001884217D040F60001C4F2BB
:100FA0000001884211D017E040F60041C4F2000170
:100FB00088420AD044F20001C4F20101884204D000
:100FC0000021C4F20101884206D1816801F00701C5
:100FD000062904BF00207047016841F0010101604B
:100FE000002070470146006841F21113C26822F0E8
:100FF0000102C260026A1A4204D00122002081F874
:101000003D207047026A40F244431A42F5D102681B
:1010100022F0010202600122002081F83D20704789
:1010200080B590F83C20012A4FF0020200F0C28007
:1010300080F83D20D0F800C04FF67772DCF8083019
:1010400023EA0202CCF808200B684F2B28DC1F2B68
:1010500044DD202B45D0302B43D0402B40F0AC80DA
:10106000D1F804E0C968DCF82030DCF8202022F058
:101070000102CCF82020DCF8182022F0F00242EA2D
:10108000011123F00A0242EA0E02CCF81810CCF843
:101090002020DCF8081041F0470121F0300180E009
:1010A0006F2B27DDB3F5005F48D0B3F5805F7AD0B2
:1010B000702B40F08180D1E901E3C968DCF8082099
:1010C00043EA0E0322F47F4243EA01211143CCF8A4
:1010D0000810DCF8081041F0770162E00BB1102B2A
:1010E0006AD1DCF8081021F07001194341F00701C2
:1010F00057E000BF502B35D0602B5DD1D1F804E014
:10110000C968DCF82030DCF8202022F01002CCF88E
:101110002020DCF8182022F4704242EA013123F04A
:10112000A00242EA0E12CCF81810CCF82020DCF80D
:10113000081041F0670121F0100132E0D1E901E32C
:10114000C968DCF8082043EA0E0322F47F4243EA30
:1011500001211143CCF80810DCF8081041F480415B
:101160001FE000BFD1F804E0C968DCF82030DCF8EB
:10117000202022F00102CCF82020DCF8182022F0F8
:10118000F00242EA011123F00A0242EA0E02CCF810
:101190001810CCF82020DCF8081041F0570121F09D
:1011A0002001CCF808100022012180F83D10002118
:1011B00080F83C10104680BD0122F5E77047000022
:1011C00070B504460068C5680669B10716D515F004
:1011D000020113D06FF002010161012121778069C2
:1011E000800703D02046FFF7E9FF05E0204600F026
:1011F0008FF8204600F08EF800202077700719D570
:1012000015F0040016D020686FF00401016102217E
:101210002177806910F4407F04D02046FFF7CEFF8D
:1012200006E000BF204600F073F8204600F072F898
:1012300000202077300717D515F0080014D020685B
:101240006FF00801016104212177C069800703D094
:101250002046FFF7B3FF05E0204600F059F820468E
:1012600000F058F800202077F00619D515F010008E
:1012700016D020686FF01001016108212177C06944
:1012800010F4407F04D02046FFF798FF06E000BF2F
:10129000204600F03DF8204600F03CF80020207782
:1012A000F00718BF15F0010002D1300609D412E092
:1012B00020686FF001010161204600F02DF8300632
:1012C00009D515F0800006D020686FF0800101611B
:1012D0002046FFF7A5FD700609D515F0400006D0A1
:1012E00020686FF040010161204600F027F8B00649
:1012F00058BF70BD15F0200008D021686FF02002A3
:1013000020460A61BDE87040FFF78CBD70BD00004B
:10131000704700007047000040F21C01C2F200015B
:10132000884218BF704740F21000C2F200000188E6
:10133000428801310180511C418070477047000094
:10134000002804BF0120704710B5044690F8410002
:1013500028B9002084F84000204600F021F824201D
:1013600084F841002068C16821F40051C160204622
:1013700000F002FA2068016921F49041016141699D
:1013800021F02A014161C16841F40051C16000208F
:101390002021606484F8411084F84210606310BD1D
:1013A00080B586B0016844F20040C4F2000081427A
:1013B00002D006B080BD00BF002143F6300201918B
:1013C000C4F20202136900F5DE3043F40033136106
:1013D000136903F400330193019B0191136843F0F7
:1013E00001031360126802F001020192019A0C22BB
:1013F00001920222CDE9022104910721059101A960
:10140000FFF78EF806B080BDFEE700002DE9F0473B
:1014100086B0002743F63000CDE904770097C4F288
:101420000200016840F2004A41F0040101600168D5
:10143000C4F2020A01F004010091009900970168CA
:10144000AAF5806541F0800101600168002201F089
:10145000800100910099009701684FF0200841F049
:1014600001010160016801F00101009100990097FC
:10147000016841F0020101600068202100F00200D3
:10148000009000982846FFF725F950464FF49071D8
:1014900000224FF49079FFF71DF94FF400500190AE
:1014A0004FF4041001AECDE902070AF58060314621
:1014B000FFF736F8012428463146CDF80480CDE9FF
:1014C00002470497FFF72CF850463146CDE90194C6
:1014D000CDE90377FFF724F8C020CDE90107504696
:1014E00031460397FFF71CF806B0BDE8F08700000F
:1014F00080B586B040F21C0040F600020021C2F226
:101500000000C4F20002292340F2E73C0591CDE936
:101510000311CDE90011C0E90023C0E9021C0161FB
:101520008161FFF7C9FC002818BFFEF7E1FF4FF407
:101530008050029040F21C00C2F2000002A9FFF7A6
:101540006FFD002818BFFEF7D3FF40F21C00C2F267
:1015500000006946FFF768FC002818BFFEF7C8FFC7
:1015600006B080BD80B540F2640044F20041C2F292
:101570000000C4F2000100234FF00C0C4FF4E132E4
:1015800080E80E00C0E90333C0E905C3C361FFF77B
:10159000D7FE002808BF80BDBDE88040FEF7A8BF89
:1015A000FEE70000FEE70000704700007047000003
:1015B000FFF79CB8B0B592B0002443F64000CDE9E7
:1015C0000A44CDE908440594CDE90344CDE901443A
:1015D0000094C4F202000168022541F080510160CC
:1015E000006800F080500090009847F200000094DE
:1015F000C4F20000016865F38F310160006800F4F7
:10160000404000900098012006904FF480300790F1
:101610004FF480000D9004200E905420CDE90F056A
:101620000720119006A80C95FFF72AFA10B172B6A0
:10163000FEE700BF0F20CDE901054FF4A050CDE932
:10164000040001A802210394FFF70CF910B172B64F
:10165000FEE700BF12B0B0BD4EF68850CEF20000DB
:10166000016841F4700101607047000040F21C0005
:10167000C2F20000FFF7A4BD10B540F2FF7E036880
:10168000C4F2000E40F2000C7045C4F2010C1DDDE6
:1016900040F60002C4F20002904220D060451ED005
:1016A00040F60042C4F20002904218D04FF6FF729A
:1016B000C4F2000290421CDC704525DCB0F1804F82
:1016C0003AD040F20042C4F2000233E0B0F1804F61
:1016D00005D040F20042C4F200029042E6D14A68CE
:1016E00023F0700313434FF6FF72C4F200029042DE
:1016F000E2DD44F2FF32C4F20102904210DC6045A8
:101700001AD044F2000213E040F60002C4F20002D4
:10171000904211D040F60042C4F200020AE000BF3D
:1017200044F60002C4F20102904205D044F20042A5
:10173000C4F20102904203D1CA6823F440731343F8
:1017400023F080024B69D1F800E08C681A436045B1
:101750000260C462C0F828E002D10969CCF83010F8
:10176000012141610169C90708BF10BD016921F06C
:101770000101016110BD000010B504460068D4E904
:1017800002C22369016921F4405111430161626978
:1017900043EA0C01E3691143C268194349F20C633F
:1017A0009A431143C1604169A26921F4407141F239
:1017B0000043114340F48062C4F201039A42416144
:1017C00002D1FFF713F901E0FFF7FCF8E169636864
:1017D0001922B1F5004FA0FB020123D15A00DB0F03
:1017E000FEF7F4FC48F21F51C5F2EB11A0FB0123F8
:1017F0005A094FF69C73C0F6FF7303F1805302FB46
:101800000300322303EBC000A0FB01014FF4F8708A
:1018100000EA111000EB0210C1F3421108442168E4
:10182000886010BD9A009B0FFEF7D0FC48F21F5154
:10183000C5F2EB11A0FB01235A094FF69C73C0F6C9
:10184000FF7302FB0300322303EB0010A0FB010136
:10185000F02000EA511000EB0210C1F343110844DC
:101860002168886010BD0000FEE700000000000055
:1018700082B040F20044C4F20204FEF745FFFFF7D5
:1018800099FEFFF7C3FDFFF733FEFFF76BFE9FEDF9
:10189000360B40F21C0540F2100740F624094FF0C9
:1018A000000BC2F20005C2F20007C4F200095AECB4
:1018B000108B00BF20464FF490710122FEF70AFF03
:1018C0004FF4D260019000BF00BF0198411E01910A
:1018D00078B100BF0198411E019150B100BF01983D
:1018E000411E019128B100BF0198411E00280191BD
:1018F000EAD120464FF490710022FEF7EBFE00BFC4
:1019000020464021FEF7E0FE0028F9D02868C0F804
:1019100024B02846C7F800B0FFF722FB204640213C
:10192000FEF7D2FE0128F9D02846FFF75BFB2868B6
:10193000B988406A4FF47A7201FB02063220C9F876
:1019400000B0FEF7D9FD3046FEF7E0FC42465346B4
:10195000FEF76DFCFEF7E7FCB8604FF49670FEF7FB
:10196000CBFDA7E700BF00BF0000000000003D4026
:1019700002E008C8121F08C1002AFAD17047704758
:10198000002001E001C1121F002AFBD170470000B6
:10199000000000000000010203040607080900001F
:1019A0000000010203040000C81900080000002024
:1019B0001000000070190008D8190008100000205D
:1019C000A0040000801900080100000010000000C1
:0819D0000024F40000000000F7
:040000050800019559
:00000001FF
